:020000040800F2
:1000000000800020496000086F0B0008710B000899
:10001000B10B0008B30B0008B50B0008000000008E
:10002000000000000000000000000000B70B000806
:10003000B90B000800000000BB0B0008BD0B000856
:1000400099600008996000089960000899600008AC
:100050009960000899600008C50B0008CD0B0008E6
:10006000996000089960000899600008D50B0008A5
:10007000996000089960000899600008996000087C
:10008000996000080000000099600008996000086D
:10009000E50B000899600008996000089960000865
:1000A000996000089960000899600008996000084C
:1000B000996000089960000899600008996000083C
:1000C000996000089960000899600008996000082C
:1000D000996000089960000899600008996000081C
:1000E000996000089960000899600008996000080C
:1000F00099600008996000089960000800000000FD
:1001000000000000996000080000000099600008ED
:1001100099600008000000009960000899600008DC
:1001200099600008996000089960000899600008CB
:1001300099600008000000000000000099600008BD
:1001400099600008996000080000000000000000AD
:10015000000000000000000000000000000000009F
:10016000000000000000000000000000996000088E
:10017000996000080000000000000000000000007E
:10018000000000009960000800000000000000006E
:10019000000000000000000000000000000000005F
:1001A000000000000000000099600008996000084D
:1001B000996000089960000899600008000000003C
:1001C000000000009960000800000000000000002E
:0801D000996000089960000825
:1001E00010B5054C237833B9044B13B10448AFF371
:1001F00000800123237010BDE401002000000000F6
:100200001C69000808B5034B1BB103490348AFF351
:10021000008008BD00000000E80100201C69000803
:10022000034613F8012B002AFBD1181A0138704736
:1002300001F0FF01102A2BDB10F0070F08D010F897
:10024000013B013A8B422DD010F0070F42B3F6D19B
:10025000F0B441EA012141EA014122F007047FF0B4
:1002600000070023F0E80256083C85EA010586EA0B
:10027000010685FA47F5A3FA87F586FA47F6A5FA47
:1002800087F68EB9EED1F0BC01F0FF0102F0070253
:1002900032B110F8013B013A83EA010313B1F8D1FE
:1002A0000020704701387047002D06BF35460338DF
:1002B000073815F0010F07D1013015F4807F02BF18
:1002C000013015F4C03F0130F0BC0138704700BF69
:1002D00053B94AB9002908BF00281CBF4FF0FF31AD
:1002E0004FF0FF3000F072B9ADF1080C6DE904CEAB
:1002F00000F006F8DDF804E0DDE9022304B0704701
:100300002DE9F047089E04468846002B4BD18A42CF
:10031000154667D9B2FA82F24AB1C2F1200701FA52
:1003200002F320FA07F7954047EA030894404FEAA2
:10033000154E230CB8FBFEF71FFA85FC0EFB178841
:1003400043EA084307FB0CF1994209D9EB1807F17E
:10035000FF3080F01B81994240F21881023F2B440C
:100360005B1AA4B2B3FBFEF00EFB103344EA034465
:1003700000FB0CFCA44509D92C1900F1FF3380F0D7
:100380000781A44540F2048102382C4440EA07402A
:10039000A4EB0C0400271EB1D4400023C6E900439F
:1003A0003946BDE8F0878B4209D9002E00F0EB807A
:1003B0000027C6E9000138463946BDE8F087B3FAA0
:1003C00083F7002F47D18B4202D3824200F2FA809A
:1003D000841A61EB030301209846002EE0D0C6E9A1
:1003E0000048DDE702B9FFDEB2FA82F2002A40F0EF
:1003F0008F80491B4FEA154E1FFA85F80127B1FB84
:10040000FEFC230C0EFB1C1143EA014308FB0CF11C
:10041000994207D9EB180CF1FF3002D2994200F251
:10042000CD808446591AA3B2B1FBFEF00EFB101426
:1004300043EA044408FB00F8A04507D92C1900F151
:10044000FF3302D2A04500F2B6801846A4EB0804A0
:1004500040EA0C409FE7C7F1200CBB4022FA0CFE9B
:100460004EEA030E01FA07F420FA0CF521FA0CF318
:100470004FEA1E482543B3FBF8F92C0C08FB19334F
:100480001FFA8EFA44EA034309FB0AF49C4202FA7B
:1004900007F200FA07F10BD91EEB030309F1FF3055
:1004A00080F087809C4240F28480A9F10209734465
:1004B0001B1BADB2B3FBF8F008FB103345EA034455
:1004C00000FB0AFAA24508D91EEB040400F1FF3331
:1004D0006BD2A24569D90238744440EA0940A0FBB6
:1004E0000289A4EB0A044C45C2464B4654D351D072
:1004F000002E69D0B1EB0A0564EB030404FA0CFC8E
:10050000FD40FC404CEA0505C6E90054002747E7DA
:10051000C2F1200320FA03F7954001FA02F021FA14
:1005200003F34FEA154E3843010CB3FBFEF71FFAF5
:1005300085F80EFB173341EA034107FB08F38B42B2
:1005400004FA02F407D9691807F1FF3C2FD28B4255
:100550002DD9023F2944CB1A81B2B3FBFEF00EFB2A
:10056000103341EA034100FB08F38B4207D96918B5
:1005700000F1FF3C17D28B4215D902382944C91A21
:1005800040EA07473BE73746304609E70746E7E6D4
:100590001846FBE64145ABD2B8EB020A69EB0E0206
:1005A00001381346A4E76046E9E7184695E7674631
:1005B000D1E781467CE702382C4447E7ACF1020CD6
:1005C0002B442FE7384608E73746E9E6704700BF77
:1005D00070B588B00024039404940594069407949D
:1005E0001D4BDA6C42F00102DA64DA6C02F00102AF
:1005F0000192019ADA6C42F00202DA64DB6C03F0D9
:1006000002030293029B154D22464FF48071284647
:1006100000F0D7FC03230393114B049302260596A5
:1006200003A94FF0904000F0F5FB4FF400730393E3
:100630000494059603A94FF0904000F0EBFB4FF4B3
:1006400080730393012304930594069403A9284619
:1006500000F0E0FB08B070BD00100240000400484C
:100660000000311038B5104C104B23604FF4E133CB
:1006700063600025A560E56025610C236361A561C9
:10068000E56125626562A562204602F0CFF8294641
:10069000204602F058F92946204602F079F9204612
:1006A00002F032F938BD00BFE005002000440040F0
:1006B00000B583B00E4B9A6C42F004029A649A6CB7
:1006C00002F004020092009A9A6C42F001029A64CD
:1006D0009B6C03F001030193019B002211460B2048
:1006E00003F0F8F80B2003F027F903B05DF804FBE2
:1006F0000010024008B500221146062003F0EAF877
:10070000062003F019F900221146072003F0E2F851
:10071000072003F011F908BD10B58CB0302200217C
:10072000684605F0DFFC0D4C0D4B2360204604F0BD
:100730008AFC0223009300228DF804208DF8052006
:10074000029203920492059201230693079269464E
:10075000204604F08BFC0CB010BD00BFBC04002090
:100760000008005008B50E480E4B03604FF482732A
:100770004360002383604FF44072C26003614361B1
:100780004FF4007282611822C26103624362836285
:100790000722C26203630823436304F063FD08BDBC
:1007A0007C0500200030014030B59DB00024189435
:1007B00019941A941B941594169417940E940F94EC
:1007C000109411941294139414943422214601A885
:1007D00005F088FC224D234B2B606C60AC6010232D
:1007E000EB602C616C61AC61284600F0EBFD4FF4CE
:1007F0008053189318A9284600F02CFF284600F0D3
:1008000010FE15941694179415A9284600F0A6FF1B
:1008100060230E9308230F93109411941294139451
:10082000149422460EA9284600F074FE0194029406
:100830000394049405944FF400530693079408948A
:1008400009944FF000730A930B940C940D9401A932
:10085000284600F0CDFF284600F080FA1DB030BDDC
:1008600030050020002C014010B50E4C22680032EB
:1008700018BF01224FF480710B4800F0A2FB2368DF
:10088000B3FA83F35B0923600124084B1C600A2040
:1008900002F0EEF8064B5C61064B4022C3F8802163
:1008A00010BD00BF00020020000400480402002028
:1008B0000004014000E100E010B50E4C2268003257
:1008C00018BF01224FF480710B4800F07AFB2368B7
:1008D000B3FA83F35B092360084B01221A600A20F4
:1008E00002F0C6F8064B02225A61064B8022C3F87A
:1008F000802110BD000200200004004808020020F2
:100900000004014000E100E038B5002415E0154D79
:1009100001224FF48071284600F053FB4FF4FA7027
:1009200002F0A6F800224FF48071284600F049FB3F
:100930004FF4FA7002F09CF80134012CE7DD0A4C08
:100940000A4B07CB20606160A2601B88A381204610
:10095000FFF766FC4FF0FF3382B22146044801F0F6
:10096000BAFE38BD000400483C0400204469000879
:10097000E005002030B5A5B03822002116A805F00A
:10098000B1FB0024119412941394149415944422EE
:100990002146684605F0A6FB4FF4007002F002FF06
:1009A000222316934FF48073199340231A93012343
:1009B0001C9302231D931E9304251F95322220921F
:1009C00021932293239316A802F092F80F231193F8
:1009D00003231293139414941594294611A802F03A
:1009E0003FFB42F20203009302940D94684602F02A
:1009F0005FFC25B030BD000070B582B002F016F883
:100A0000FFF7B8FFFFF7E4FDFFF72CFEFFF750FEFE
:100A1000FFF782FEFFF7A6FE02F0C0FFFFF7C4FE5D
:100A2000FFF768FEFFF770FF09E001224FF48071C5
:100A3000454800F0C6FA454B1B68002B51D10121F7
:100A40004FF0904000F0B6FA054602214FF090407A
:100A500000F0B0FA06464FF400714FF0904000F0FD
:100A6000A9FA3B4C009033462A463A49204605F005
:100A700041FB2046FFF7D4FB4FF0FF3382B2214603
:100A8000354801F028FE642001F0F2FF334B1B686B
:100A9000002BD0D0324D0FCD20606160A260E360AA
:100AA000286820612046FFF7BBFB4FF0FF3382B27E
:100AB0002146294801F00FFE284B00221A6001212F
:100AC0004FF0904000F076FA0128AED0254B1A681E
:100AD000003218BF01224FF480711B4800F071FAF8
:100AE000A9E71B4C204D0FCD20606160A260E36040
:100AF000286820612046FFF793FB4FF0FF3382B256
:100B00002146154801F0E7FD104B00221A60022132
:100B10004FF0904000F04EFA01280AD0114B1A68AD
:100B2000003218BF01224FF48071074800F049FAE3
:100B300085E70C4B1A68003218BF01224FF4807110
:100B4000014800F03EFA7AE700040048080200205D
:100B50003C04002054690008E00500200402002045
:100B60006469000800020020786900087047704737
:100B700038B50024002C04DD4FF47A7001F078FFC2
:100B8000F7E70A4D01224FF48071284600F019FA68
:100B9000C82001F06DFF00224FF48071284600F05C
:100BA00010FAC82001F064FF0134E3E700040048B4
:100BB000FEE7FEE7FEE770477047704708B501F0B3
:100BC00045FF08BD08B5FFF74FFE08BD08B5FFF7A4
:100BD00073FE08BD08B5024802F082FD08BD00BFE3
:100BE000D004002008B5024803F0EBFB08BD00BFAD
:100BF0003409002082B00D4B1A6E42F001021A66D1
:100C00001A6E02F001020092009A9A6D42F0805230
:100C10009A659B6D03F080530193019B044A93688E
:100C200043F48043936002B0704700BF001002405D
:100C30000070004030B589B00023039304930593FE
:100C40000693079302681E4B9A4201D009B030BD4B
:100C5000044603F1704303F50233DA6C42F4803248
:100C6000DA64DA6C02F480320192019ADA6C42F0B2
:100C70000102DA64DB6C03F001030293029B10258E
:100C800003950323049303A94FF0904000F0C2F8AA
:100C90000C480D4B03600623436085600023C3604E
:100CA0008022026143618361C361036202F0AAFC96
:100CB00018B9044BA3609C62C8E7FFF757FFF8E739
:100CC00000080050D00400200800024000B589B0A0
:100CD0000023039304930593069307930268134B31
:100CE0009A4202D009B05DF804FB03F560431A6E26
:100CF00042F480521A661A6E02F480520192019AEE
:100D0000DA6C42F00102DA64DB6C03F00103029357
:100D1000029BE0230393022304930523079303A973
:100D20004FF0904000F076F8DCE700BF0030014063
:100D30000268094B9A4200D0704782B003F56443C1
:100D40001A6E42F400621A661B6E03F4006301938C
:100D5000019B02B0704700BF002C014000B587B076
:100D600000230193029303930493059302680F4BAE
:100D70009A4202D007B05DF804FB03F56443DA6CD5
:100D800042F00102DA64DB6C03F001030093009B84
:100D90004FF480730193022302930623059301A964
:100DA0004FF0904000F036F8E4E700BF002C01401F
:100DB00000B589B00023039304930593069307932A
:100DC0000268134B9A4202D009B05DF804FB03F5A8
:100DD000E6339A6D42F400329A659A6D02F400325D
:100DE0000192019ADA6C42F00102DA64DB6C03F0E2
:100DF00001030293029B0C23039302230493072312
:100E0000079303A94FF0904000F004F8DCE700BF1F
:100E100000440040F0B583B0002336E0052400E034
:100E20000024B4403C4302355E4E46F825405E4CFB
:100E30002568D44304EA05064F6817F4803F01D0C3
:100E400042EA0506584D2E606D6804EA05064F68B3
:100E500017F4003F01D042EA0506534D6E60AD68BD
:100E600004EA05064F6817F4801F01D042EA050620
:100E70004D4DAE60ED682C404E6816F4001F01D059
:100E800042EA0504484AD46001330A6832FA03F49E
:100E900000F0868001249C402240F5D04D686E1EF3
:100EA000112D18BF012E01D9122D12D186685F00B5
:100EB0000325BD4026EA0506CD68BD403543856063
:100EC000466826EA04064D68C5F300149C40344386
:100ED0004460C6685F000325BD40EC4326408D6832
:100EE000BD403543C5604D68122D18BF022D13D18A
:100EF000DE08083650F826E003F007054FEA850CB7
:100F00000F2505FA0CF52EEA050E0D6905FA0CF50C
:100F100045EA0E0540F82650056825404C6804F067
:100F20000304BC402C4304604C6814F0805FABD0D9
:100F30001E4C256E45F001052566246E04F0010463
:100F40000194019C9D08AE1C164C54F8267003F0C9
:100F50000304A6000F24B44027EA0407B0F1904F21
:100F60003FF45EAF124CA04212D004F58064A04260
:100F700010D004F58064A0420ED004F58064A04235
:100F80000CD004F58064A0423FF448AF062448E743
:100F9000012446E7022444E7032442E7042440E70F
:100FA00003B0F0BD00000140000401400010024009
:100FB000000400480369194201D100207047012054
:100FC00070470AB98162704781617047F0B4036A63
:100FD00023F001030362036A446885691E4A2A40BC
:100FE0000E68164323F002038D682B431B4A1C4DE9
:100FF000A84218BF90420CBF012200220CD005F578
:101000008055A84214BF00250125164FB84203D0D1
:1010100015B9154DA84205D123F00803CD682B431F
:1010200023F004035AB9114A904214BF002201224E
:101030000C4DA84203D012B90B4A904205D124F4BA
:1010400040724C6914438A691443446086614A685B
:1010500042630362F0BC70478CFFFEFF002C01402E
:10106000003401400040014000480140004401407C
:1010700070B4036A23F480730362036A4468C56929
:101080001A4A2A400E68164323F400738A6843EA1A
:101090000223174A174DA84218BF90420CBF0122E5
:1010A000002206D123F40063CD6843EA052323F42C
:1010B00080635AB9104A904214BF002201220F4D9A
:1010C000A84203D012B90E4A904207D124F44054EA
:1010D0004A6944EA02148A6944EA02144460C66117
:1010E0004A68C263036270BC704700BF8CFFFEFF9A
:1010F000002C014000340140004401400040014008
:101100000048014070B4036A23F480530362036A09
:101110004468C5691A4A2A400E6842EA062623F442
:1011200000538A6843EA0233164A174DA84218BF93
:1011300090420CBF0122002206D123F40043CD6867
:1011400043EA053323F480435AB9104A904214BF4E
:10115000002201220E4DA84203D012B90D4A90423E
:1011600007D124F440444A6944EA82148A6944EA73
:1011700082144460C6614A680264036270BC7047AE
:10118000FF8CFFFE002C0140003401400044014070
:10119000004001400048014070B4036A23F48033EA
:1011A0000362036A4268056D144C2C400D682C43A1
:1011B00023F400338D6843EA0543114E114DA842D4
:1011C00018BFB0420DD005F58055A84214BF0025C8
:1011D000012506F5A056B04203D015B90A4DA84224
:1011E00004D122F480324D6942EA0522426004654E
:1011F0004A688264036270BC704700BF8FFFFEFFC5
:10120000002C0140003401400048014070B4036AE2
:1012100023F480130362036A4468056D144A2A406C
:101220000D6842EA052223F400138D6843EA055352
:10123000104E114DA84218BFB0420DD005F5805593
:10124000A84214BF0025012506F5A056B04203D0E0
:1012500015B90A4DA84204D124F480244D6944EA0A
:101260008524446002654A68C264036270BC7047AA
:10127000FF8FFFFE002C0140003401400048014078
:1012800010B4036A046A24F001040462846924F03F
:10129000F00444EA021223F00A030B438261036262
:1012A0005DF8044B704710B4036A23F01003036227
:1012B0008469036A24F4704444EA023223F0A003F0
:1012C00043EA0113826103625DF8044B704700003A
:1012D0008268034B1340194341F007018160704756
:1012E0008FFFCFFF7047000070B403682F4A904211
:1012F00014BF00220122B0F1804F14BF144642F007
:1013000001045CB92A4DA84214BF00250125294ECD
:10131000B04203D015B9284DA84203D123F0700381
:101320004D682B43E4B9224CA04214BF0024012491
:10133000204DA84214D09CB9204CA04214BF0024D8
:10134000012405F59835A8420AD04CB91C4CA0429E
:1013500014BF0024012405F58055A84200D01CB11B
:1013600023F44073CC68234323F080034C69234368
:1013700003608B68C3620B6883620F4B984208BF9F
:1013800042F0010262B903F58053984214BF002372
:1013900001230A4A904203D013B9094B984201D164
:1013A0000B6903630123436170BC7047002C01404B
:1013B00000080040000400400034014000400140AB
:1013C0000048014058B310B5044690F83D300BB3C7
:1013D000022384F83D30211D2068FFF785FF01239B
:1013E00084F8483084F83E3084F83F3084F8403048
:1013F00084F8413084F8423084F8433084F8443033
:1014000084F8453084F8463084F8473084F83D301D
:10141000002010BD80F83C30FFF78AFCD8E701209F
:10142000704758B310B5044690F83D300BB3022313
:1014300084F83D30211D2068FFF756FF012384F812
:10144000483084F83E3084F83F3084F8403084F8E7
:10145000413084F8423084F8433084F8443084F8D2
:10146000453084F8463084F8473084F83D30002019
:1014700010BD80F83C30FFF735FFD8E701207047FA
:1014800070B4036A23F010030362036A4468856939
:101490001A4A2A400E6842EA062623F020038A6888
:1014A00043EA0213164A174DA84218BF90420CBFD8
:1014B0000122002206D123F08003CD6843EA051300
:1014C00023F040035AB9104A904214BF002201226F
:1014D0000E4DA84203D012B90D4A904207D124F410
:1014E00040644A6944EA82048A6944EA82044460A6
:1014F00086614A688263036270BC7047FF8CFFFE9E
:10150000002C0140003401400044014000400140F3
:101510000048014038B590F83C30012B00F08C8039
:101520000D460446012380F83C30142A1ED8DFE81B
:1015300002F00B1D1D1D211D1D1D351D1D1D481DEE
:101540001D1D5C1D1D1D6F000068FFF73FFD22681B
:10155000936943F0080393612268936923F00403BD
:1015600093612268936929690B439361002084F891
:101570003C0038BD0068FFF783FF2268936943F49D
:10158000006393612268936923F480639361226806
:101590009369296943EA01239361E7E70068FFF74C
:1015A00067FD2268D36943F00803D3612268D369D9
:1015B00023F00403D3612268D36929690B43D36103
:1015C000D4E70068FFF79EFD2268D36943F4006307
:1015D000D3612268D36923F48063D3612268D3691D
:1015E000296943EA0123D361C0E70068FFF7D4FD0E
:1015F0002268136D43F0080313652268136D23F00E
:10160000040313652268136D29690B431365ADE765
:101610000068FFF7FBFD2268136D43F40063136558
:101620002268136D23F4806313652268136D2969A2
:1016300043EA0123136599E702209AE710B484680E
:1016400024F47F4442EA03230B43234383605DF881
:10165000044B704790F83C30012B77D010B504460E
:10166000012380F83C30022380F83D300268906806
:10167000374B034093600B68702B41D01DD8302B43
:1016800016D00FD9502B4DD0602B55D0402B42D1C6
:10169000CA6849682068FFF7F3FD40212068FFF71A
:1016A00017FE38E0102B03D0202B01D0002B32D1B5
:1016B00019462068FFF70CFE2DE0264A9342F7D02A
:1016C00014D8B3F1101FF3D0103A9342F0D0B3F511
:1016D000005F20D1CB684A6889682068FFF7AEFFB9
:1016E0002268936843F48043936014E01A4A93425B
:1016F000DED010329342DBD0303A93420BD1D7E7A1
:10170000CB684A6889682068FFF798FF2268936869
:1017100043F077039360012384F83D30002084F880
:101720003C0010BDCA6849682068FFF7A9FD502138
:101730002068FFF7CDFDEEE7CA6849682068FFF72B
:10174000B2FD60212068FFF7C3FDE4E70220704787
:101750008800CEFF300010006000100090F83C3090
:10176000012B3DD070B4012380F83C30022380F877
:101770003D3003685A689D681A4E1B4CA34218BF3F
:10178000B34203D122F470024C682243174C144038
:101790000A6822435A600368124AB3F1804F18BFA7
:1017A00093420FD0A2F5943293420BD002F580629F
:1017B000934207D002F59632934203D002F540627D
:1017C000934204D125F080058A6815439D6001236A
:1017D00080F83D30002380F83C30184670BC7047DC
:1017E00002207047002C0140003401408FFFFFFDB4
:1017F00090F83C30012B48D030B4012380F83C30C5
:10180000CB6823F440738A68134323F480634A68E7
:10181000134323F400630A68134323F480530A69D3
:10182000134323F400534A69134323F480430A6BA0
:10183000134323F470238A6943EA02430268144C79
:10184000144DAA4218BFA2420CBF0124002403D1A8
:1018500023F08053CD692B4384B123F470038C6A49
:1018600043EA045323F080730C6A234323F000738C
:101870004C6A234323F00053C96A0B43536400238B
:1018800080F83C30184630BC70470220704700BFDB
:10189000002C0140003401402DE9F0480446016865
:1018A00083680269134342691343C2691343426E5A
:1018B00013430868904A02401A430A60226853683A
:1018C00023F44053E1680B435360A16922688B4BBA
:1018D0009A4201D0236A19439068894B03400B4315
:1018E00093602268D36A23F00F03616A0B43D362CB
:1018F0002368844A934223D0834A934234D0834A54
:1019000093424AD0824A93425DD07C4A934270D03F
:1019100010257A4A934200F08F80E369B3F5004FB7
:1019200000F05683082D00F21886DFE815F0AD04AC
:10193000FD043B0516069305160616061606D10588
:1019400002F55842D2F8882002F00302032A09D88F
:10195000DFE802F0020468060125DAE70425D8E78B
:101960000825D6E71025D4E702F5E632D2F888201C
:1019700002F00C020C2A0ED8DFE802F0070D0D0D64
:10198000090D0D0D560D0D0D0B000025C1E70425A9
:10199000BFE70825BDE71025BBE702F5E432D2F822
:1019A000882002F03002102A09D005D9202A3DD023
:1019B000302A06D10825ACE71AB90025A9E7042585
:1019C000A7E71025A5E702F5E232D2F8882002F059
:1019D000C002402A09D005D9802A29D0C02A06D1C0
:1019E000082596E71AB9002593E7042591E7102505
:1019F0008FE702F5C832D2F8882002F44062B2F5CF
:101A0000806F0BD007D9B2F5006F13D0B2F5406FDD
:101A100006D108257DE71AB900257AE7042578E77D
:101A2000102576E7022574E7022572E7022570E7A4
:101A300002256EE702256CE7082D00F29185DFE8AC
:101A400015F009008F0569008F0587008F058F0548
:101A50008F05BE0001F008FC636AD3B1012B36D0BC
:101A6000022B36D0032B36D0042B36D0052B36D0A4
:101A7000062B36D0072B36D0082B36D0092B36D084
:101A80000A2B36D00B2B01D0012303E04FF48073D7
:101A900000E00123B0FBF3F0002800F063856268EA
:101AA00002EB4203834200F25F85B0EB023F00F29B
:101AB0005D85082D00F28982DFE815F0D5008702E8
:101AC00034018702CC0187028702870223020223A6
:101AD000E0E70423DEE70623DCE70823DAE70A234E
:101AE000D8E70C23D6E71023D4E72023D2E74023FE
:101AF000D0E78023CEE700BFF369FFCF008000402E
:101B0000FFF4FF110038014000440040004800404D
:101B1000004C0040636A002B6ED0012B6ED0022B6C
:101B20006ED0032B6ED0042B6ED0052B6ED0062BFF
:101B30006ED0072B6ED0082B6ED0092B6ED00A2BDF
:101B40006ED00B2B01D0AE48A6E74FF22440A3E79E
:101B500001F042FA636AD3B1012B1CD0022B1CD0D6
:101B6000032B1CD0042B1CD0052B1CD0062B1CD007
:101B7000072B1CD0082B1CD0092B1CD00A2B1CD0E7
:101B80000B2B01D0012303E04FF4807300E001230D
:101B9000B0FBF3F080E70223FAE70423F8E706231B
:101BA000F6E70823F4E70A23F2E70C23F0E7102313
:101BB000EEE72023ECE74023EAE78023E8E7636AC7
:101BC00083B3012B31D0022B32D0032B33D0042B23
:101BD00034D0052B35D0062B36D0072B37D0082B29
:101BE00038D0092B39D00A2B3AD00B2B02D04FF426
:101BF000004051E780204FE781484DE781484BE79F
:101C0000814849E7814847E7814845E7814843E7FC
:101C1000814841E781483FE781483DE781483BE70C
:101C2000814839E74FF4004036E74FF4804033E70E
:101C30004FF4005030E741F255502DE74FF48050FB
:101C40002AE740F6CC4027E740F6AA2024E74FF4E5
:101C5000006021E74FF480601EE74FF400701BE73F
:101C60004FF4807018E701F0FFFA636AE3B1012BCB
:101C70003AD0022B3BD0032B3CD0042B3DD0052B7C
:101C80003ED0062B3FD0072B40D0082B41D0092B4C
:101C900042D00A2B43D00B2B02D00122002305E0B7
:101CA0004FF48072002301E0012200230021FEF79F
:101CB0000FFB0F0247EA1067060262685008002512
:101CC0002B4616EB000B47F1000C58466146FEF719
:101CD000FFFA03462846A3F54071544A914200F2A8
:101CE00047842268D36001E302220023DEE7042256
:101CF0000023DBE706220023D8E708220023D5E7EC
:101D00000A220023D2E70C220023CFE7102200236F
:101D1000CCE720220023C9E740220023C6E7802227
:101D20000023C3E7636AFBB1012B2DD0022B30D017
:101D3000032B33D0042B36D0052B39D0062B3CD0C7
:101D4000072B3FD0082B42D0092B45D00A2B48D077
:101D50000B2B04D0DFF8D8B04FF0000C08E0DFF810
:101D6000A0B04FF0000C03E0DFF8C4B04FF0000C5F
:101D7000560800252B461BEB06004CF10001FEF730
:101D8000A7FA03462846A6E7DFF8A8B04FF0000CF4
:101D9000EEE7DFF8A4B04FF0000CE9E70FF2500CCB
:101DA000DCE900BCE4E7DFF894B04FF0000CDFE7BB
:101DB000DFF88CB04FF0000CDAE70FF23C0CDCE9F6
:101DC00000BCD5E7DFF87CB04FF0000CD0E7DFF8BF
:101DD00078B04FF0000CCBE7DFF870B04FF0000C9C
:101DE000C6E7DFF86CB04FF0000CC1E7AFF300803E
:101DF00000AAB028000000000055581400000000A0
:101E00000024F40000127A0000093D00AAB0280066
:101E100080841E00006A18005558140040420F00CC
:101E200020A1070090D0030048E80100FFFC0F004C
:101E3000000024F40000127A0000093D0080841E96
:101E400000006A180040420F0020A1070090D00354
:101E50000048E80101F0C0F8636AE3B1012B32D019
:101E6000022B33D0032B34D0042B35D0052B36D0A6
:101E7000062B37D0072B38D0082B39D0092B3AD076
:101E80000A2B3BD00B2B02D00122002305E04FF49C
:101E90008072002301E0012200230021FEF718FADE
:101EA0000F0247EA106706026268500800252B46B9
:101EB00016EB000B47F1000C58466146FEF708FA96
:101EC0000346284607E702220023E6E70422002310
:101ED000E3E706220023E0E708220023DDE70A22E9
:101EE0000023DAE70C220023D7E710220023D4E7EF
:101EF00020220023D1E740220023CEE780220023C6
:101F0000CBE7636AFBB1012B2DD0022B30D0032B22
:101F100033D0042B36D0052B39D0062B3CD0072BE1
:101F20003FD0082B42D0092B45D00A2B48D00B2B91
:101F300004D04FF4000B4FF0000C08E04FF4004BBE
:101F40004FF0000C03E04FF4000B4FF0000C56086C
:101F500000252B461BEB06004CF10001FEF7B8F9FB
:101F600003462846B7E64FF4800B4FF0000CEEE72F
:101F70004FF4001B4FF0000CE9E7DFF88CB44FF092
:101F8000000CE4E74FF4801B4FF0000CDFE7DFF8B4
:101F90007CB44FF0000CDAE7DFF874B44FF0000CBB
:101FA000D5E74FF4002B4FF0000CD0E74FF4802B17
:101FB0004FF0000CCBE74FF4003B4FF0000CC6E7AE
:101FC0004FF4803B4FF0000CC1E70120002382E674
:101FD000082D00F25681DFE815F009005700960041
:101FE0005401CF005401540154010E0101F03CF999
:101FF000636AD3B1012B33D0022B33D0032B33D000
:10200000042B33D0052B33D0062B33D0072B33D002
:10201000082B33D0092B33D00A2B33D00B2B01D014
:10202000012303E04FF4807300E00123B0FBF3F0E1
:102030006268530803EB4003B3FBF2F39BB200204A
:10204000A3F110014FF6EF72914200F293829AB21F
:1020500022F00F02C3F3420313432268D36045E129
:102060000223E3E70423E1E70623DFE70823DDE7B4
:102070000A23DBE70C23D9E71023D7E72023D5E792
:102080004023D3E78023D1E701F000F9636AD3B19D
:10209000012B24D0022B24D0032B24D0042B24D0BA
:1020A000052B24D0062B24D0072B24D0082B24D09A
:1020B000092B24D00A2B24D00B2B01D0012303E0C1
:1020C0004FF4807300E00123B0FBF3F06268530823
:1020D00003EB4003B3FBF2F39BB20020B0E7022313
:1020E000F2E70423F0E70623EEE70823ECE70A23F0
:1020F000EAE70C23E8E71023E6E72023E4E74023A0
:10210000E2E78023E0E7636ACBB1012B20D0022B0A
:1021100020D0032B20D0042B20D0052B20D0062B41
:1021200020D0072B20D0082B20D0092B20D00A2B21
:1021300020D00B2B01D0A84B02E0A84B00E0A64B0F
:10214000626803EB5203B3FBF2F39BB2002077E724
:10215000A34BF5E7A34BF3E7A34BF1E7A34BEFE763
:10216000A34BEDE7A34BEBE7A34BE9E7A34BE7E773
:10217000A34BE5E7A34BE3E700F02EFF636AD3B17F
:10218000012B24D0022B24D0032B24D0042B24D0C9
:10219000052B24D0062B24D0072B24D0082B24D0A9
:1021A000092B24D00A2B24D00B2B01D0012303E0D0
:1021B0004FF4807300E00123B0FBF3F06268530832
:1021C00003EB4003B3FBF2F39BB2002038E702239A
:1021D000F2E70423F0E70623EEE70823ECE70A23FF
:1021E000EAE70C23E8E71023E6E72023E4E74023AF
:1021F000E2E78023E0E7636ADBB1012B23D0022B07
:1022000024D0032B25D0042B26D0052B27D0062B3A
:1022100028D0072B29D0082B2AD0092B2BD00A2B0A
:102220002CD00B2B02D04FF4803304E04FF480739A
:1022300001E04FF48033626803EB5203B3FBF2F327
:102240009BB20020FCE64FF40043F4E74FF48043D8
:10225000F1E742F6AA23EEE74FF40053EBE741F62D
:102260009813E8E741F25453E5E74FF48053E2E76F
:102270004FF40063DFE74FF48063DCE74FF4007353
:10228000D9E701200023DBE600F0EEFF636AD3B15B
:10229000012B35D0022B35D0032B35D0042B35D074
:1022A000052B35D0062B35D0072B35D0082B35D054
:1022B000092B35D00A2B35D00B2B01D0012203E09E
:1022C0004FF4807200E00122B0FBF2F2636802EB8F
:1022D0005302B2FBF3F292B20020A2F110014FF6CA
:1022E000EF73994200F248812368DA600122A4F872
:1022F0006A20A4F868200022E2662267BDE8F08820
:102300000222E1E70422DFE70622DDE70822DBE71D
:102310000A22D9E70C22D7E71022D5E72022D3E7FB
:102320004022D1E78022CFE700F0B0FF636AD3B14B
:10233000012B23D0022B23D0032B23D0042B23D01B
:10234000052B23D0062B23D0072B23D0082B23D0FB
:10235000092B23D00A2B23D00B2B01D0012203E021
:102360004FF4807200E00122B0FBF2F2636802EBEE
:102370005302B2FBF3F292B20020AEE70222F3E77F
:102380000422F1E70622EFE70822EDE70A22EBE755
:102390000C22E9E71022E7E72022E5E74022E3E705
:1023A0008022E1E7636AC3B3012B3FD0022B3FD009
:1023B000032B3FD0042B3FD0052B3FD0062B3FD023
:1023C000072B3FD0082B3FD0092B3FD00A2B3FD003
:1023D0000B2B1FD0024A21E00048E80148E8010029
:1023E0000024F40000127A005461510000093D00FD
:1023F00000D43000AAB0280080841E0040420F00A4
:1024000020A1070090D003000055150000CC0C005F
:1024100000AA0A004FF2244200E0584A636802EB27
:102420005302B2FBF3F292B2002056E7544AF5E7AA
:10243000544AF3E7544AF1E7544AEFE7544AEDE7C8
:10244000544AEBE7544AE9E7544AE7E7544AE5E7D8
:10245000544AE3E700F0C0FD636AD3B1012B23D0F7
:10246000022B23D0032B23D0042B23D0052B23D0E6
:10247000062B23D0072B23D0082B23D0092B23D0C6
:102480000A2B23D00B2B01D0012203E04FF48072E2
:1024900000E00122B0FBF2F2636802EB5302B2FBF0
:1024A000F3F292B2002018E70222F3E70422F1E7E8
:1024B0000622EFE70822EDE70A22EBE70C22E9E724
:1024C0001022E7E72022E5E74022E3E78022E1E768
:1024D000636AD3B1012B22D0022B23D0032B24D04B
:1024E000042B25D0052B26D0062B27D0072B28D050
:1024F000082B29D0092B2AD00A2B2BD00B2B02D04A
:102500004FF4004203E0802201E04FF40042636890
:1025100002EB5302B2FBF3F292B20020DDE64FF47D
:102520008042F4E74FF40052F1E741F25552EEE7F2
:102530004FF48052EBE740F6CC42E8E740F6AA229F
:10254000E5E74FF40062E2E74FF48062DFE74FF423
:102550000072DCE74FF48072D9E701200022BCE66C
:102560000120C3E60020C1E60120BFE60120BDE650
:102570000120BBE60120B9E60120B7E60024F40003
:1025800000127A0000093D00AAB0280080841E00D5
:10259000006A18005558140040420F0020A107009F
:1025A00090D0030048E80100836A13F0010F06D0C1
:1025B0000268536823F40033C16A0B435360836A93
:1025C00013F0020F06D00268536823F48033016BC6
:1025D0000B435360836A13F0040F06D002685368FC
:1025E00023F48023416B0B435360836A13F0080F7D
:1025F00006D00268536823F40043816B0B43536099
:10260000836A13F0100F06D00268936823F4805396
:10261000C16B0B439360836A13F0200F06D00268EE
:10262000936823F40053016C0B439360836A13F0A7
:10263000400F0AD00268536823F48013416C0B43A7
:102640005360436CB3F5801F0BD0836A13F0800F87
:1026500006D00268536823F40023C16C0B43536017
:1026600070470268536823F4C003816C0B435360C6
:10267000EBE72DE9F04105460F4616469846069CC5
:102680002B68DB6937EA03030CBF01230023B34245
:102690001ED1B4F1FF3FF3D000F0E4F9A0EB080045
:1026A000A04201D8002CEBD12A68136823F4D07320
:1026B00013602A68936823F0010393602023C5F810
:1026C0008030C5F88430002385F87C30032000E09A
:1026D0000020BDE8F0812DE9F04182B01E46D0F81F
:1026E0008030202B5CD104460D469046B2FA82F32E
:1026F0005B09002908BF0123002B56D190F87C30DC
:10270000012B54D0012380F87C300023C0F888309E
:102710002123C0F8803000F0A5F90746A4F85480C2
:10272000A4F85680A368B3F5805F02D04FF000088C
:1027300010E023690BB34FF000080BE038F8023BC0
:102740002268C3F308039362B4F85630013B9BB28E
:10275000A4F85630B4F856309BB28BB100963B4685
:10276000002280212046FFF784FF10BB002DE5D01A
:1027700015F8012B23689A62E6E7A8460025E9E7E9
:1027800000963B46002240212046FFF772FF034699
:1027900088B92022C4F88020002284F87C2000E040
:1027A0000223184602B0BDE8F0810123F9E70223B5
:1027B000F7E70323F5E70323F3E730B583B00446D7
:1027C0000023C0F8883000F04DF9054623681B68E7
:1027D00013F0080F0ED123681B6813F0040F17D1F4
:1027E0002023C4F88030C4F88430002084F87C00B2
:1027F00003B030BD6FF07E430093034600224FF4D8
:1028000000112046FFF735FF0028E4D00320EFE752
:102810006FF07E4300932B4600224FF48001204648
:10282000FFF727FF0028DBD00320E1E778B310B5DE
:102830000446D0F880300BB32423C4F880302268DB
:10284000136823F0010313602046FFF725F80128E1
:1028500013D0A36ABBB92268536823F49043536032
:102860002268936823F02A0393602268136843F078
:10287000010313602046FFF7A0FF10BD80F87C30F5
:10288000FEF796FAD8E72046FFF78EFEE3E7012031
:102890007047000010B485B002461A4B93E803005D
:1028A00004AC04E903006C46083393E8030084E8B1
:1028B0000300536EFBB111688B68C3F342638868F1
:1028C00004A901EB507010F8081CC90010F8100C96
:1028D00091FBF0F1A2F86A1004A90B4413F8081C4C
:1028E000C90013F8103C91FBF3F3A2F8683005B06F
:1028F0005DF8044B70470123A2F86A30A2F86830F3
:10290000F5E700BF3469000890F87C30012B18D03F
:10291000012380F87C302423C0F8803003681A68D3
:10292000196821F00101196022F00052002343666A
:1029300001680A602022C0F8802080F87C301846A8
:1029400070470220704738B590F87C30012B1DD0BD
:102950000446012380F87C302423C0F880300368CB
:102960001D681A6822F001021A600268936823F059
:10297000604319439160FFF78DFF23681D6020239A
:10298000C4F88030002084F87C0038BD0220FCE7C9
:1029900038B590F87C30012B1DD00446012380F817
:1029A0007C302423C0F8803003681D681A6822F048
:1029B00001021A600268936823F060631943916012
:1029C000FFF768FF23681D602023C4F880300020D3
:1029D00084F87C0038BD0220FCE70000104B1B6827
:1029E0000BB90120704710B504464FF47A70B0FB64
:1029F000F3F30C4A1068B0FBF3F000F0ABFF68B9DA
:102A00000F2C01D901200AE0002221464FF0FF30AF
:102A100000F060FF044B1C60002000E0012010BDAE
:102A200000000020080000200400002010B5032052
:102A300000F03EFF0020FFF7D1FF10B10124204637
:102A400010BD0446FEF7D6F8F9E70000034A136804
:102A5000034909680B441360704700BF6C060020EF
:102A600000000020014B1868704700BF6C06002072
:102A700038B50446FFF7F6FF0546B4F1FF3F02D034
:102A8000044B1B681C44FFF7EDFF401BA042FAD328
:102A900038BD00BF00000020124AD36803F00303D2
:102AA000D068C0F303100130032B11D00E4BB3FBE1
:102AB000F0F30C4AD068C0F3062000FB03F0094B8A
:102AC000DB68C3F3416301335B00B0FBF3F0704795
:102AD000064BB3FBF0F3D068C0F3062000FB03F015
:102AE000EDE700BF001002400024F40000127A005D
:102AF000002800F05C8270B582B00446036813F0D1
:102B0000010F37D0B44A936803F00C03D26802F087
:102B100003020C2B08BF032A23D0082B21D04368C3
:102B2000B3F5803F4ED0B3F5A02F51D0AA4B1A6811
:102B300022F480321A601A6822F480221A606368D4
:102B4000002B52D0FFF78EFF0546A34B1B6813F4F2
:102B5000003F0FD1FFF786FF401B6428F5D9032003
:102B60002EE29D4B1B6813F4003F03D06368002BDB
:102B700000F01F82236813F0020F5DD0964A93681D
:102B800003F00C03D26802F003020C2B08BF022AE8
:102B90003AD0042B38D0E368002B73D08E4A1368E8
:102BA00043F480731360FFF75DFF05468A4B1B6893
:102BB00013F4806F5DD1FFF755FF401B0228F5D954
:102BC0000320FDE1844A136843F480331360B6E7C1
:102BD00003F18043A3F53C331A6842F480221A6063
:102BE0001A6842F480321A60A9E7FFF73BFF0546F6
:102BF000794B1B6813F4003FBCD0FFF733FF401B39
:102C00006428F5D90320DBE1734B1B6813F4806F54
:102C100003D0E368002B00F0CE816F4A536823F0A5
:102C2000FE43216943EA016353606C4B1868FFF768
:102C3000D5FE002840F0C181236813F0080F4CD066
:102C400063699BB3644AD2F8943043F00103C2F83D
:102C50009430FFF707FF05465F4BD3F8943013F02D
:102C6000020F3AD1FFF7FEFE401B0228F4D90320E1
:102C7000A6E1594A536823F0FE43216943EA016300
:102C80005360D9E7544A136823F480731360FFF745
:102C9000E9FE0546504B1B6813F4806FCCD0FFF75C
:102CA000E1FE401B0228F5D9032089E14A4AD2F807
:102CB000943023F00103C2F89430FFF7D3FE0546A9
:102CC000454BD3F8943013F0020F06D0FFF7CAFE3D
:102CD000401B0228F4D9032072E1236813F0040F8B
:102CE00000F081803C4B9B6D13F0805F36D13A4BF6
:102CF0009A6D42F080529A659B6D03F08053019368
:102D0000019B0125364B1B6813F4807F28D0A368F4
:102D1000012B39D0052B3FD02F4BD3F8902022F038
:102D20000102C3F89020D3F8902022F00402C3F8E7
:102D30009020A368002B3DD0FFF794FE0646264B5B
:102D4000D3F8903013F0020F4CD1FFF78BFE801BAD
:102D500041F288339842F2D9032031E10025D1E7CE
:102D60001F4A136843F480731360FFF77BFE064627
:102D70001B4B1B6813F4807FC9D1FFF773FE801BC8
:102D80000228F5D903201BE1134AD2F8903043F012
:102D90000103C2F89030CCE70F4BD3F8902042F0FB
:102DA0000402C3F89020D3F8902042F00102C3F847
:102DB0009020BEE7FFF756FE0646074BD3F890304B
:102DC00013F0020F0ED0FFF74DFE801B41F2883347
:102DD0009842F2D90320F3E00010024004000020E2
:102DE00000700040E5B9236813F0200F35D0A369C7
:102DF000E3B1764AD2F8983043F00103C2F8983034
:102E0000FFF730FE0546714BD3F8983013F0020FF0
:102E100023D1FFF727FE401B0228F4D90320CFE07F
:102E20006A4A936D23F080539365DCE7674AD2F8D2
:102E3000983023F00103C2F89830FFF713FE0546DF
:102E4000624BD3F8983013F0020F06D0FFF70AFE5A
:102E5000401B0228F4D90320B2E0E369002B00F004
:102E6000AE805A4A926802F00C020C2A67D0022BFC
:102E70001BD0564B1A6822F080721A60DA6822F072
:102E80000302DA60D968524A0A40DA60FFF7EAFDC5
:102E900004464E4B1B6813F0007F4ED0FFF7E2FD57
:102EA000001B0228F5D903208AE0484A136823F062
:102EB00080731360FFF7D6FD0546444B1B6813F083
:102EC000007F06D0FFF7CEFD401B0228F5D9032076
:102ED00076E03E4AD3683F491940236A606A013868
:102EE00043EA0013A06A43EA0023206B400801383C
:102EF00043EA4053606B4008013843EA4063E06AAC
:102F000043EAC0630B43D360136843F080731360DC
:102F1000D36843F08073D360FFF7A4FD04462B4BC6
:102F20001B6813F0007F06D1FFF79CFD001B0228F1
:102F3000F5D9032044E0002042E0002040E0012BCE
:102F400040D0224BDB6803F00301226A914201D09A
:102F5000012035E003F0F002616A0139B2EB011F94
:102F600001D001202CE003F4FE42A16AB2EB012F54
:102F700001D0012024E003F07842E16AB2EBC16F96
:102F800001D001201CE003F4C001226B5208013A79
:102F9000B1EB425F01D0012012E003F0C063626B2D
:102FA0005208013AB3EB426F0ED0012008E0012035
:102FB0007047012004E0012002E0012000E0002031
:102FC00002B070BD0120FBE70020F9E700100240CD
:102FD000FFFFEEFE0C809F011E4B9B6803F00C036D
:102FE000042B33D01B4B9B6803F00C03082B2FD012
:102FF000184B9B6803F00C030C2B01D0002070478A
:10300000144BDA6802F00302DB68C3F303130133E5
:10301000032A11D11048B0FBF3F30E4AD068C0F375
:10302000062000FB03F00B4BDB68C3F34163013365
:103030005B00B0FBF3F070470848B0FBF3F3054AC0
:10304000D068C0F3062000FB03F0ECE703487047AC
:10305000014870470010024000127A000024F4007A
:10306000002800F0EA80F8B50446764B1B6803F0B0
:103070000F038B420CD2734A136823F00F030B43E8
:103080001360136803F00F038B4201D00120B3E0FB
:103090000D46236813F0010F61D06368032B15D030
:1030A000022B33D0684B1B6813F4806F00F0C7808D
:1030B000FFF792FF654B984235D9634A936823F036
:1030C000F00343F08003936080272DE05E4B1B6884
:1030D00013F0007F01D101208EE0FFF7DDFC5B4B98
:1030E00098421AD9584B9B6813F0F00F05D023680B
:1030F00013F0020F13D0A3689BB9534A936823F0CF
:10310000F00343F08003936080270DE04E4B1B6873
:1031100013F4003FCCD101206EE0002704E000272B
:1031200002E0002700E00027474A936823F00303EA
:1031300061680B439360FFF795FC0646424B9B6822
:1031400003F00C036268B3EB820F09D0FFF78AFC2F
:10315000801B41F288339842F0D903204CE00027CD
:10316000236813F0020F48D013F0040F04D0364A3E
:10317000936843F4E0639360236813F0080F06D06C
:10318000314A936823F47C5343F4E06393602E4AFE
:10319000936823F0F003A1680B439360294B1B68ED
:1031A00003F00F03AB4230D8236813F0040F06D0AE
:1031B000254A936823F4E063E1680B439360236836
:1031C00013F0080F07D0204A936823F46053216955
:1031D00043EAC1039360FFF7FFFE1B4B9B68C3F3F9
:1031E00003131B4AD35C03F01F03D840194B18602C
:1031F000194B1868FFF7F2FBF8BD002FCED0124A2A
:10320000936823F0F0039360C8E70E4A136823F035
:103210000F032B431360FFF725FC0646094B1B6881
:1032200003F00F03AB42BFD0FFF71CFC801B41F241
:1032300088339842F2D90320DEE70120704701204D
:10324000DAE700BF002002400010024000B4C404CE
:103250008C6900080800002004000020014B186859
:10326000704700BF0800002008B5FFF7F7FF054BC7
:103270009B68C3F30223044AD35C03F01F03D840C6
:1032800008BD00BF001002409C69000808B5FFF7A8
:10329000E5FF054B9B68C3F3C223044AD35C03F0EC
:1032A0001F03D84008BD00BF001002409C69000801
:1032B000F0B583B00446036813F4002F69D0B34B14
:1032C0009B6D13F0805F1ED1B04B9A6D42F080521F
:1032D0009A659B6D03F080530193019B0126AC4AD4
:1032E000136843F480731360FFF7BCFB0546A84BDB
:1032F0001B6813F4807F08D1FFF7B4FB401B022842
:10330000F5D9032502E00026E9E7002545BB9F4BE0
:10331000D3F8903013F4407315D0226C9A4212D037
:103320009A4AD2F8903023F44073D2F8901041F4C6
:103330008031C2F89010D2F8901021F48031C2F898
:103340009010C2F8903013F0010F10D145B98F4A98
:10335000D2F8903023F44073216C0B43C2F89030C4
:10336000C6B18A4A936D23F08053936512E0FFF74C
:1033700079FB0746854BD3F8903013F0020FE5D167
:10338000FFF770FBC01B41F288339842F2D9032546
:10339000DCE70025236813F0010F08D07B4AD2F840
:1033A000883023F0030361680B43C2F88830236838
:1033B00013F0020F08D0754AD2F8883023F00C03BE
:1033C000A1680B43C2F88830236813F0040F08D0BB
:1033D0006E4AD2F8883023F03003E1680B43C2F81C
:1033E0008830236813F0080F08D0684AD2F8883074
:1033F00023F0C00321690B43C2F88830236813F01F
:10340000200F08D0614AD2F8883023F44063616904
:103410000B43C2F88830236813F0400F08D05B4A92
:10342000D2F8883023F44053A1690B43C2F88830A6
:10343000236813F0800F08D0544AD2F8883023F460
:103440004043E1690B43C2F88830236813F4807F5E
:1034500008D04E4AD2F8883023F44033216A0B4317
:10346000C2F88830236813F4007F08D0474AD2F8A6
:10347000883023F44023616A0B43C2F88830236804
:1034800013F4806F0CD0414AD2F8883023F44013F3
:10349000A16A0B43C2F88830A36AB3F5801F57D0E6
:1034A000236813F4006F0CD0384AD2F8883023F424
:1034B0004003E16A0B43C2F88830E36AB3F5800F3A
:1034C0004BD0236813F4805F0CD0304AD2F8883098
:1034D00023F04073216B0B43C2F88830236BB3F1A8
:1034E000807F3FD0236813F4005F0CD0274AD2F8C6
:1034F000883023F04063616B0B43C2F88830636B04
:10350000B3F1006F33D0236813F4804F0CD01F4AFF
:10351000D2F8883023F04063A16B0B43C2F88830A7
:10352000A36BB3F1006F27D0236813F4004F0CD0C6
:10353000164AD2F8883023F04053E16B0B43C2F8AF
:103540008830E36BB3F1805F1BD0284603B0F0BD39
:10355000D36843F48013D360A2E7D36843F48013A5
:10356000D360AEE7D36843F48013D360BAE7D3687F
:1035700043F48013D360C6E7D36843F48013D36069
:10358000D2E7D36843F48033D360DEE70010024013
:103590000070004003680C4A934213D90B49DBB218
:1035A000083B0B4AA2FB0323426C22F003020A44AD
:1035B0008264084AC264C3F30413012202FA03F3CB
:1035C000036570470449EAE7070402402008024007
:1035D000CDCCCCCC80080240000802400379074AD9
:1035E0001A4492004265064A8265013B03F01F03BC
:1035F000012202FA03F3C365704700BF3F82001047
:103600004009024000285AD010B5044602682D4BEC
:103610009A423CD82C4B13442C4AA2FB03231B098F
:103620009B0043642A4B0364022384F825302168FD
:103630000B68284A1A40A368E068034320690343E3
:1036400060690343A0690343E0690343206A0343BD
:1036500013430B602046FFF79DFFA368B3F5804F2F
:1036600020D0A36C22791A60E36C226D5A606368E3
:10367000013B032B19D900236365A365E365002093
:10368000E063012384F8253084F8240010BD124B38
:1036900013440E4AA2FB03231B099B0043640F4BF8
:1036A0000364C1E700236360DBE72046FFF796FF72
:1036B000636D00221A60A36DE26D5A60DFE701209E
:1036C000704700BF07040240F8FFFDBFCDCCCCCC53
:1036D000000002400F80FFFFF8FBFDBF0004024026
:1036E00038B5036C196804682568436C03F01F0340
:1036F00004229A400A4215D015F0040F12D0236814
:1037000013F0200F03D1236823F004032360436CDC
:1037100003F01F02016C042393404B60036B03B161
:10372000984738BD02229A400A421CD015F0020F79
:1037300019D0236813F0200F06D1236823F00A0361
:103740002360012380F82530436C03F01F02016CD5
:10375000022393404B60002380F82430C36A002B7F
:10376000DFD09847DDE7082202FA03F30B42D8D0F6
:1037700015F0080FD5D0236823F00E032360436CA7
:1037800003F01F03016C012202FA03F34B60C263D2
:1037900080F82520002380F82430436B002BC0D014
:1037A0009847BEE7002838D13E4B1B6803F4C0633E
:1037B000B3F5806F08D03B4AD2F8803023F4807391
:1037C000C2F8803000207047364AD2F8803023F4A7
:1037D0008073C2F88030136823F4C06343F400732D
:1037E0001360314B1A68322303FB02F32F4AA2FB0A
:1037F00003239B0C013300E0013B2A4A526912F477
:10380000806F01D0002BF7D1264B5B6913F4806FDA
:1038100001D10020704703207047B0F5007F08D029
:10382000204A136823F4C06343F4806313600020CC
:1038300070471C4B1B6803F4C063B3F5806F08D05E
:10384000184AD2F8803043F48073C2F880300020E8
:103850007047144AD2F8803043F48073C2F8803045
:10386000136823F4C06343F4007313600E4B1A68AB
:10387000322303FB02F30D4AA2FB03239B0C01330B
:1038800000E0013B074A526912F4806F01D0002B1F
:10389000F7D1044B5B6913F4806F01D100207047AE
:1038A00003207047007000400800002083DE1B43A7
:1038B0000649CB6823F4E0631B041B0C000200F4F0
:1038C000E0600343024A1A43CA60704700ED00E01B
:1038D0000000FA0530B4154BDB68C3F30223C3F1D3
:1038E0000704042C28BF04241D1D062D14D9033BF6
:1038F0004FF0FF3505FA04F421EA0401994005FA76
:1039000003F322EA03031943002807DB0901C9B2C4
:10391000074B195430BC70470023E9E700F00F0053
:103920000901C9B2034B1954F4E700BF00ED00E0F0
:1039300000E400E014ED00E0002807DB00F01F02C7
:10394000400901239340024A42F82030704700BFEB
:1039500000E100E00138B0F1807F0AD2064B5860E8
:10396000064AF02182F823100020986007221A608E
:1039700070470120704700BF10E000E000ED00E05C
:10398000054BD3F8882042F47002C3F888204FF02A
:1039900000629A60704700BF00ED00E008B50022A9
:1039A0000F49104801F0BBFC70B90F490D4801F0F8
:1039B000CDFC60B90D490B4802F018FB50B909481D
:1039C00001F0CBFC48B908BDFDF7D0F8EDE7FDF7F5
:1039D000CDF8EFE7FDF7CAF8F1E7FDF7C7F8F2E732
:1039E0000C00002070060020700000206000002005
:1039F00018B1022803D00220704700207047012030
:103A0000704708B5FCF7B6FF08BD000010B588B0D8
:103A10000023039304930593069307930268154BC1
:103A20009A4201D008B010BD134CE36C43F001037F
:103A3000E364E36C03F001030193019B4FF4C05373
:103A400003930323049303A94FF09040FDF7E2F999
:103A5000A36D43F40003A365A36D03F40003029375
:103A6000029B002211461420FFF734FF1420FFF7B9
:103A700063FFD7E7005C00400010024008B500F586
:103A80000C71D0F8700201F081FC08BD08B500EBA4
:103A90004113D3F83C21D0F8700201F0A4FC08BD1A
:103AA00008B500EB4113DA6BD0F8700201F0E4FCCA
:103AB00008BD08B5D0F8700201F088FD08BD10B54A
:103AC00004468368022B01D0FDF750F80121D4F899
:103AD000700201F064FDD4F8700201F038FD10BDF1
:103AE00010B50446D0F8700201F05CFDA36923B163
:103AF000024A136943F00603136110BD00ED00E0B4
:103B000010B50446836923B9D4F8700201F053FD5F
:103B100010BD044A136923F006031361FFF771FF18
:103B2000F2E700BF00ED00E010B504461E48C0F803
:103B30007042C4F8C0021D4B036008234360022397
:103B400083600361002343618361C361036200F00A
:103B50006BF930BB182300221146D4F8C00200F0E4
:103B600087FD582300228021D4F8C00200F080FD98
:103B7000C02300228121D4F8C00200F079FD4FF467
:103B8000887300220121D4F8C00200F071FD4FF4C7
:103B9000807300228221D4F8C00200F069FD002069
:103BA00010BDFCF7E3FFD5E734090020005C0040BE
:103BB00008B5D0F8C00200F098F9FFF719FF08BD6A
:103BC00010B51C4613462246D0F8C00200F0B6F9E4
:103BD000FFF70EFF10BD08B5D0F8C00200F0E6F9FF
:103BE000FFF706FF08BD08B5D0F8C00200F0D2FC10
:103BF000FFF7FEFE08BD08B5D0F8C00200F001FDD9
:103C0000FFF7F6FE08BDD0F8C03211F0800F06D1E4
:103C100001F07F0103EB411191F82A01704701F097
:103C20007F0103EB411191F82A00704708B5D0F8E5
:103C3000C00200F06FF9FFF7DBFE08BD08B5D0F851
:103C4000C00200F007FAFFF7D3FE08BD08B5D0F8B0
:103C5000C00200F0D9F9FFF7CBFE08BD08B5D0F8D7
:103C6000C00200F0F0F908BD10B5044611B10129F9
:103C70000FD010BD836923B9D4F8700201F09BFC0A
:103C8000F7E7FFF7BEFE094A136923F00603136145
:103C9000F2E7D0F8700201F085FCA369002BE8D0B0
:103CA000024A136943F006031361E2E700ED00E006
:103CB000004870470C0200207047000012230B8060
:103CC000004870472C00002004230B8000487047F8
:103CD000400000200023934216D230B40BE037346A
:103CE00001F8134000015C00013400250D5501333B
:103CF000DBB2934206D2040F092CF0D8303401F81D
:103D00001340EFE730BC70477047000038B50A4BEE
:103D1000186804331C6804331B68C01800D138BD10
:103D2000064D0822A91CFFF7D5FF042205F1120158
:103D30002046FFF7CFFFF2E79075FF1F44000020F9
:103D400008B51A230B80FFF7E1FF014808BD00BF4B
:103D50004400002008B50A4628B10549054801F08D
:103D60009AFF034808BD0249024801F094FFF8E7B2
:103D7000A80B0020D469000810B5044C0A4621465F
:103D8000034801F088FF204610BD00BFA80B0020AB
:103D9000C069000808B50A4628B10549054801F080
:103DA0007AFF034808BD0249024801F074FFF8E7B2
:103DB000A80B0020A469000808B50A4628B10549E7
:103DC000054801F068FF034808BD0249024801F0B8
:103DD00062FFF8E7A80B0020B069000800207047D8
:103DE0000020704710B5054C0146204602F00DF941
:103DF000204602F010F9002010BD00BF7006002020
:103E000010B5064C00220649204602F0F6F8054996
:103E1000204602F0FAF8002010BD00BF7006002016
:103E200090110020A80D002000285CD0F0B587B0CC
:103E3000044690F829323BB1032384F829322068E4
:103E400000F04CFC002316E080F82832FFF7DEFD7E
:103E5000F2E704EB4312012182F8291082F828309E
:103E6000D386002182F82B109163D1639A1C5201F2
:103E7000A1500133DBB260688342EAD3002312E031
:103E800004EB4311002281F8292181F8283181F8BF
:103E90002B21C1F83821C1F83C2103F10A01490165
:103EA00062500133DBB29842EAD8254655F8107BC0
:103EB0006E460FCD0FC62B683360231D0ECB3846E0
:103EC00000F016FC002384F82430012384F8293202
:103ED000E369012B02D0002007B0F0BD204600F0BE
:103EE000DFFB0020F8E70120704790F82832012B13
:103EF0000ED010B50446012380F82832006800F087
:103F0000E6FE206800F0E0FB002084F8280210BDE7
:103F10000220704790F82832012B0DD010B50446CE
:103F2000012380F8283280F82410006800F0C9FED0
:103F3000002084F8280210BD0220704770B511F0EF
:103F4000800F23D101F007056D0105F59474044439
:103F50000544002685F8296101F0070121702261DE
:103F6000E370627802B1E181022B1AD090F8283216
:103F7000012B19D00546012380F82832214600681C
:103F800000F0CCFB002085F8280270BD01F0070589
:103F90006D0105F1280404440544012685F82960D3
:103FA000DAE700232371E1E70220EEE710B511F014
:103FB000800F1CD101F007035B0103F594720244EA
:103FC0000344002483F8294101F00703137090F89B
:103FD0002832012B16D00446012380F828321146DE
:103FE000006800F02DFD002084F8280210BD01F0CB
:103FF00007035B0103F1280202440344012483F810
:104000002940E1E70220F1E770B501F007056C01F6
:1040100004F5947101440444C4F83C2105F10A02FA
:104020005201861883500023736084F8293184F884
:10403000285125B1006800F06CFE002070BD0068BA
:1040400000F067FEF9E701F007010A3100EB4111CA
:104050004868704770B501F007056C0104F128014C
:1040600001440444E263AA1C5201861883500023D1
:104070007360012384F8293084F8285025B1006842
:1040800000F047FE002070BD006800F042FEF9E736
:10409000F8B504462068B0F8443013F4004F00F03F
:1040A0008E81B0F844309BB213F00F0540F0BF8012
:1040B00013F0100F53D003889BB213F4006F7ED11E
:1040C00013F4004FE6D0038823F070031B051B0D8B
:1040D00043F0800303802068B0F8503094F8282122
:1040E00003EBC2030344B3F80634C3F30903C4F873
:1040F00044318BB1D4F83C1171B1B4F82E2100F0E9
:104100008BFFD4F84421D4F83C311344C4F83C313B
:1041100000212046FFF7BAFC2368B3F8502013446F
:10412000D4F83821002A6AD1B3F8062492B222F4D6
:10413000F84292B2A3F80624B3F8062442F40042EF
:10414000A3F8062421680B8823F4804323F070032E
:1041500083F4405348F280021A430A809AE70388A6
:1041600023F4E14323F0700343F400430380226807
:10417000B2F8503094F8281003EBC1031344B3F89D
:104180000234C3F309036364E26B1344E363002165
:104190002046FFF785FC94F82430002B3FF47AAFDB
:1041A000236C002B7FF476AF94F82430226843F020
:1041B0008003A2F84C30002384F824306AE7B0F87A
:1041C000503094F8282103EBC2030344B3F80634BB
:1041D000C3F30903C4F84431B4F82E2104F50C717B
:1041E00000F01AFF2268138823F070031B051B0DD3
:1041F00043F0800313802046FFF740FC4AE73E2A45
:1042000009D8510812F0010F00D00131890289B29A
:10421000A3F8061496E7510912F01F0F00D10139D7
:104220008A0292B242F40042A3F806248AE730F8E8
:104230002560B6B216F4004F2DD116F0800F3FF472
:1042400029AF226832F8253023F4E14323F07003CC
:1042500043F4004322F825302268B2F8503004EBD2
:10426000451090F8281003EBC1031344B3F802245F
:10427000C2F30902AB1C5B01E1184A60C16B0A443E
:10428000C263E358002B40F0928090F8281020463B
:10429000FFF706FCFEE630F8253023F070031B051F
:1042A0001B0D43F0800320F8253004EB451393F8F1
:1042B0003431A3BB2068B0F8503004EB451292F8BB
:1042C000282103EBC2030344B3F80674C7F30907BC
:1042D000DFB905F10A035B01E1184A683A444A6014
:1042E00004EB4511D1F83C213A44C1F83C21E35894
:1042F0001BB1D1F838118F4251D204EB451393F81A
:1043000028112046FFF7C2FB97E704EB45113B4617
:10431000B1F82E21D1F83C1100F07EFED9E72068DB
:1043200004EB451191F8287130F8272022F4E0427F
:1043300022F0700248F2C003134320F827302068AF
:1043400091F8282130F8223013F4804F12D0B0F8C1
:10435000503003EBC2030344B3F80274C7F30907F8
:10436000002FB6D03B46B1F83021D1F83C1100F017
:1043700053FEAEE7B0F8503003EBC2030344B3F88A
:104380000674C7F30907002FA3D004EB45113B4681
:10439000B1F83221D1F83C1100F03EFE99E704EB70
:1043A000451191F828112046FFF72EFE45E704EB52
:1043B000451595F828102046FFF74CFE6AE60020C8
:1043C000F8BD10B50446006800F089FC10F4004FF9
:1043D00040F09880206800F082FC10F4806F40F07C
:1043E0009580206800F07BFC10F4804F08D0226894
:1043F000B2F844309BB223F480439BB2A2F844301D
:10440000206800F06CFC10F4005F08D02268B2F85D
:1044100044309BB223F400539BB2A2F8443020688E
:1044200000F05DFC10F4805F21D02268B2F84030CB
:104430009BB223F004039BB2A2F840302268B2F88A
:1044400040309BB223F008039BB2A2F8403094F8AE
:104450006032012B6BD02046FFF752FB2268B2F886
:1044600044309BB223F480539BB2A2F844302068BE
:1044700000F035FC10F4006F60D1206800F02FFCD4
:1044800010F0800F28D02268B2F844309BB223F09D
:1044900080039BB2A2F8443094F86032002B68D1BC
:1044A0002268B2F8403043F00403A2F8403022689A
:1044B000B2F8403043F00803A2F84030012184F8FC
:1044C00060122368B3F854309B0803F03C03C4F82F
:1044D00064322046FFF7C8FB206800F000FC10F4AF
:1044E000007F4AD1206800F0FAFB10F4807F08D0EA
:1044F0002268B2F844309BB223F480739BB2A2F8D6
:10450000443010BD2046FFF7C3FD63E72268B2F8D0
:1045100044309BB223F480639BB2A2F8443020461F
:10452000FFF7CDFA00212046FFF7F4FC59E7002100
:1045300084F860122046FFF797FB8CE72268B2F8F8
:10454000403043F00803A2F840302268B2F844300B
:104550009BB223F400639BB2A2F844302268B2F805
:10456000403043F00403A2F840302046FFF7B8FA89
:1045700083E72046FFF7B4FAAEE72268B2F844308A
:104580009BB223F400739BB2A2F844302046FFF79D
:1045900090FAA7E738B501F0070543689D422CD88B
:1045A00011F0800F1AD14B0103F5947101440344BB
:1045B000002283F8292101238B700D7090F8283296
:1045C000012B1CD00446012380F82832006800F03B
:1045D00009FB65B1002084F828020FE06B0103F1AC
:1045E000280101440344012283F82920E3E704F56C
:1045F0000C71206800F076FBECE7012038BD02204A
:10460000FCE701F00F0243689A422DD810B511F073
:10461000800F1ED101F007035B0103F59472024481
:104620000344002483F829410023937001F0070319
:10463000137090F82832012B18D00446012380F81B
:1046400028321146006800F0EEFA002084F82802B3
:1046500010BD01F007035B0103F12802024403448B
:10466000012483F82940DFE7012070470220EFE7AB
:1046700011F0800F0CD001F00701490128310144ED
:104680005AB101220A730B811B0C4B810020704729
:10469000490101F594710144F2E70A73CB80F5E713
:1046A000024603680121C0F86812002082F8600207
:1046B000B3F854200A43A3F85420B3F8542042F02E
:1046C0000202A3F854207047B0F8403043F43F434F
:1046D00043F08003A0F8403000207047B0F840302D
:1046E00023F47E535B045B0CA0F84030002070473D
:1046F00084B038B505AC84E80E000123A0F8403042
:104700000024A0F84040A0F84440A0F85040FFF733
:10471000DBFF2046BDE8384004B0704770B4034664
:104720000A7830F8224024F4EC4424F07004C8786D
:10473000032855D8DFE800F04850024C002048F22A
:104740008006344323F822400C7833F824502DB2ED
:10475000BA4A2A40224392B2324323F824200A7BE9
:10476000002A40F0A6804A78002A48D0B3F85020AA
:104770001A440C7802EBC402CC8864086400A2F8E6
:1047800000440A7833F8224014F0400F0AD033F87E
:10479000225025F4E04525F0700548F2C0042C4372
:1047A00023F82240CA78012A1CD00C7833F8242040
:1047B00022F4E04222F0400282F0200248F280011E
:1047C000114323F824105AE044F400740020B6E7A3
:1047D00044F4C0640020B2E744F480640020AEE7F3
:1047E0000120ACE70C7833F8241021F4E04121F0EB
:1047F000400148F280020A4323F824203FE0B3F846
:1048000050201A440C7802EBC402CC88640864007F
:10481000A2F80444B3F850201A440C7802EBC40206
:104820000C6974BBB2F80644A4B224F4F844A4B2F0
:10483000A2F80644B2F8064444F40044A2F8064440
:104840000A7833F8224014F4804F0AD033F822500B
:1048500025F4E04525F070054CF280042C4323F844
:1048600022400C7833F8242022F4804222F0700297
:1048700082F4405248F28001114323F8241070BCA6
:1048800070473E2C09D8650814F0010F00D001359F
:10489000AD02ADB2A2F80654D2E7650914F01F0FBD
:1048A00000D1013DAC02A4B244F40044A2F8064495
:1048B000C6E70D7833F8254024F4E04424F0700472
:1048C00048F28012224323F82520B3F850201A44DE
:1048D0000C7802EBC4020C8964086400A2F800445E
:1048E000B3F850201A440C7802EBC4024C896408D7
:1048F0006400A2F804444A78002A46D10A7833F8C2
:10490000224014F4804F0AD033F8225025F4E045B9
:1049100025F070054CF280042C4323F822400A78DD
:1049200033F8224014F0400F0AD033F8225025F417
:10493000E04525F0700548F2C0042C4323F82240DE
:104940000D7833F8254024F4E04424F0700448F254
:10495000C002224323F825200D7833F8252022F4C5
:10496000804222F0700282F4405248F280042243D6
:1049700023F82520097833F8212022F4E04222F0A0
:104980004002224323F8212079E70A7833F82240B5
:1049900014F4804F0AD033F8225025F4E04525F076
:1049A00070054CF280042C4323F822400A7833F837
:1049B000224014F0400F0AD033F8225025F4E0458D
:1049C00025F0700548F2C0042C4323F822400D78EE
:1049D00033F8254024F4E04424F070044CF28002C3
:1049E000224323F82520CA78012A1AD00D7833F8FB
:1049F000252022F4E04222F0400282F0200248F218
:104A00008004144323F825400C7833F8241021F453
:104A1000804121F0700148F280020A4323F82420EB
:104A20002DE70D7833F8254024F4E04424F04004C9
:104A300048F28002224323F82520E5E78F8FFFFF0D
:104A400010B40B7B002B40D14B7803B30B7830F8BC
:104A5000232012F0400F0AD030F8234024F4E04421
:104A600024F0700448F2C002224320F82320097881
:104A700030F8212022F4E04222F0400248F2800384
:104A8000134320F8213000205DF8044B70470B7869
:104A900030F8232012F4804F0AD030F8234024F459
:104AA000E04424F070044CF28002224320F82320DA
:104AB000097830F8212022F4804222F0700248F276
:104AC0008003134320F82130DDE74B78002B44D1DD
:104AD0000B7830F8232012F4804F0AD030F82340AE
:104AE00024F4E04424F070044CF28002224320F8C5
:104AF00023200B7830F8232012F0400F0AD030F832
:104B0000234024F4E04424F0700448F2C00222431D
:104B100020F823200C7830F8242022F4E04222F000
:104B2000700248F2C003134320F824300B7830F8A9
:104B3000232022F4804222F0700248F280042243B3
:104B400020F823200A7830F8223023F4E04323F0C1
:104B50004003234320F8223095E70B7830F82320D8
:104B600012F4804F0AD030F8234024F4E04424F0BB
:104B700070044CF28002224320F823200B7830F896
:104B8000232012F0400F0AD030F8234024F4E044F0
:104B900024F0700448F2C002224320F823200C784D
:104BA00030F8242022F4E04222F070024CF280031C
:104BB000134320F824300B7830F8232022F4E0420D
:104BC00022F0400248F28004224320F823200A7891
:104BD00030F8223023F4804323F07003234320F87D
:104BE000223050E74B787BB9097830F8213023F434
:104BF000804323F0700383F4805348F280021A4309
:104C000020F8212000207047097830F8213023F463
:104C1000E04323F0400383F0100348F280021A437C
:104C200020F82120EEE70B7B002B48D110B44B7805
:104C300013B30B7830F8232012F0400F0AD030F86D
:104C4000234024F4E04424F0700448F2C0022243DC
:104C500020F82320CB78012B2DD0097830F8213093
:104C600023F4E04323F0400383F0200348F2800262
:104C70001A4320F821201EE00B7830F8232012F48C
:104C8000804F0AD030F8234024F4E04424F070042C
:104C90004CF28002224320F82320097830F821309A
:104CA00023F4804323F0700383F4405348F28002DE
:104CB0001A4320F8212000205DF8044B70470020A3
:104CC000704711B98023A0F84C3000207047B0F82D
:104CD000583043F40043A0F8583000207047B0F833
:104CE000440070470020704701335B08024402F51E
:104CF00080626BB110B40C78487844EA002422F842
:104D0000024B0231013B002BF5D15DF8044B70479B
:104D1000704770B54D78012D31D08A690B699A4280
:104D200040F2F280D21A8A610A7B002A40F00881A0
:104D3000B0F8502002440C7802EBC402002B40F083
:104D4000E780B2F806349BB223F4F8439BB2A2F892
:104D50000634B2F8063443F40043A2F80634097866
:104D600030F8213023F4804323F0700383F4405360
:104D700048F280021A4320F82120002070BD8A6981
:104D80000B699A4222D9D21A8A610E4604460A7BDE
:104D900002B30A7830F8221011F0400F6DD0002DC8
:104DA0003FD1B0F85010014401EBC2020BBBB2F886
:104DB000061489B221F4F84189B2A2F80614B2F8B7
:104DC000061441F40041A2F8061432E000238B617E
:104DD0001346DAE79DB22B46CA884969FFF784FF7C
:104DE000B4F850302344327803EBC203A3F80254E2
:104DF00034E03E2B09D8590813F0010F00D00131DF
:104E0000890289B2A2F8061413E0590913F01F0FA2
:104E100000D10139890289B241F40041A2F8061497
:104E200007E0B0F85010014401EBC20299B2A2F8B9
:104E3000061472899BB271692046FFF755FF73789B
:104E4000002B52D1317834F8212022F4E04222F0B4
:104E5000700248F2C003134324F82130317834F84B
:104E6000213023F4E04323F0400383F0300348F281
:104E700080021A4324F821207FE765BBB0F8501068
:104E8000014401EBC20273B9B2F8021489B221F4F1
:104E9000F84189B2A2F80214B2F8021441F40041B8
:104EA000A2F802141FE03E2B09D8590813F0010F95
:104EB00000D00131890289B2A2F8021413E0590925
:104EC00013F01F0F00D10139890289B241F400416A
:104ED000A2F8021407E0B0F85010014401EBC2023E
:104EE00099B2A2F802143289A4E7012BB6D1317825
:104EF00034F8212022F4E04222F070024CF28003C8
:104F0000134324F82130A9E700238B6113460BE7F4
:104F10003E2B09D85C0813F0010F00D00134A40225
:104F2000A4B2A2F806441AE75C0913F01F0F00D1DF
:104F3000013CA402A4B244F40044A2F806440EE7E3
:104F4000A5B9B0F8502002440C7802EBC40233BB80
:104F5000B2F80244A4B224F4F844A4B2A2F8024481
:104F6000B2F8024444F40044A2F802444A78002A09
:104F700045D1B0F8502002440C7802EBC40233BB98
:104F8000B2F806349BB223F4F8439BB2A2F806347D
:104F9000B2F8063443F40043A2F80634DFE63E2BB1
:104FA00009D85C0813F0010F00D00134A402A4B2A8
:104FB000A2F80244DAE75C0913F01F0F00D1013CAC
:104FC000A402A4B244F40044A2F80244CEE73E2B6B
:104FD00009D85C0813F0010F00D00134A402A4B278
:104FE000A2F80644BBE65C0913F01F0F00D1013C98
:104FF000A3029BB243F40043A2F80634AFE6012AB1
:105000007FF4ADAEB0F8502002440C7802EBC4023D
:105010009BB2A2F80634A2E630B45D08024402F561
:10502000806207E032F8024BA4B20C70240A4C7084
:105030000231013D002DF5D113F0010F01D013888D
:105040000B7030BC704770B110B50446037933B1B2
:1050500002232371002020610123237110BD4371BD
:10506000FBF7E8FDF4E70120704700004379012BCE
:1050700000F0F2802DE9F04115460E46044601236A
:105080004371022303718B68042B18D0F369012B41
:105090005FD02368DF6B05F010050723AB4027EADC
:1050A0000307B36913F0010F60D113F0020840F059
:1050B000BC807369002B5BD14FF0010858E072B1DE
:1050C00023685B6B002B25DAFDF7CCFC0128F7D9B0
:1050D000236943F00803236103202071A3E0FDF757
:1050E000C1FC074623685B6B13F4004F0BD0FDF740
:1050F000B9FCC01B0128F5D9236943F008032361DB
:10510000032020718FE00120FDF7B2FC2368726A52
:105110001A6405E00120FDF7ABFC2368726A5A644B
:105120002068826C05F0100140F2FF338B4022EAC8
:105130000302B36A8B401A4382642068C36CFF2267
:105140008A4023EA0203F26A02FA01F10B43C364C4
:105150009CE721688A6B05F010001F23834022EA38
:105160000302336A834013438B6392E74FF00008D6
:10517000B3687269134343EA08034FF48072AA408C
:1051800027EA02073279012A52D04FF0000848EA94
:1051900003034FF40072AA4027EA02077279012A3A
:1051A00049D04FF0000848EA030827F44047336825
:1051B000022B43D01F4308FA05F848EA0707236883
:1051C000DF6321680B684FF48042AA4023EA0203A0
:1051D0000B6021680B6840F6FE72AA4023EA0202C7
:1051E000F368AB4013430B6021680B68C022AA40F0
:1051F00023EA02030B60F268C2F383033269920868
:10520000120202F470621A432068036E40F60F71B6
:10521000A94023EA010302FA05F51D4305660123AF
:10522000237100206071BDE8F0814FF001089FE715
:105230004FF48078ABE74FF40078B4E7FEF70EF850
:10524000064B984202D947F40047B4E7044B984212
:10525000B1D947F48047AEE702207047006889095A
:1052600000B4C404002858D010B50446002383625B
:1052700090F85D30002B45D0022384F85D30226821
:10528000136823F040031360E368B3F5E06F3ED981
:105290000022B3F5706F18BFB3F5E06F01D00021A5
:1052A000A162216B21B9B3F5E06F33D902232363E7
:1052B0006368A1680B4321690B4361690B43A169D2
:1052C00001F400710B43E1690B43216A0B43A06AAF
:1052D000216803430B60638B03F00403616A0B4393
:1052E000616B0B43E1680B43216813434B602268F9
:1052F000D36923F40063D36100202066012384F87E
:105300005D3010BD80F85C30FBF7E0FCB4E74FF493
:105310008052BEE701232363CAE70120704798B19A
:1053200008B50346D0F8B40210B10020C3F8B402A7
:1053300009B1C3F8B0121846012380F89C320270FC
:10534000FEF7F2FB002008BD0220704719B1C0F83B
:10535000B412002070470220704708B5FEF728FC01
:10536000002008BD08B5D0F8B43233B11B689847A7
:1053700008B9002008BD0220FCE70220FAE708B5C2
:10538000D0F8B4325B689847002008BD38B50446B1
:1053900000F52A75284600F03BF90123C4F8943241
:1053A000B4F8AE32C4F8983294F8A81201F01F0392
:1053B000012B0ED03BB1022B10D001F08001204612
:1053C000FEF711FC03E02946204600F0E0FA002039
:1053D00038BD2946204600F00EFBF8E72946204656
:1053E00000F039FBF3E738B50446A1BB1046D4F80A
:1053F0009432032B03D0052B24D0002037E0D4F8BF
:105400006031D4F8642193420DD99B1AC4F86031FD
:105410009A4206D99AB20146204600F07CFC002050
:1054200025E092B2F7E7D4F8B4321B692BB194F8B7
:105430009C22032A01D120469847204600F073FCA5
:10544000002014E00025C4F8945229462046FEF7B7
:10545000CAFB28460BE00A46D0F8B4329B693BB140
:1054600090F89C12032905D111469847002038BDB9
:105470000220FCE70220FAE710B50446002955D1C6
:105480001046D4F89432022B09D0002B18BF042BFD
:1054900043D094F8A032012B44D0002052E0236A7C
:1054A000626A93421DD8E169B1FBF2F302FB131368
:1054B0002BB98A4203D8D4F8983299421FD3D4F832
:1054C000B432DB682BB194F89C22032A01D1204628
:1054D000984780212046FEF786FB204600F02EFCF0
:1054E000D7E79A1A226292B20146204600F0FCFBEE
:1054F00000231A4619462046FEF7A8FBC9E70022FA
:105500001146204600F0F0FB0021C4F898120B462B
:105510000A462046FEF79AFBBBE780212046FEF7AD
:1055200062FBB6E7002084F8A0020BE00A46D0F840
:10553000B4325B693BB190F89C12032905D1114646
:105540009847002010BD0220FCE70220FAE770B562
:105550000446402300221146FEF732FB0125C4F821
:1055600058514026C4F86461334600228021204609
:10557000FEF726FBA561666284F89C520023C4F8FE
:1055800094326360C4F8A432D4F8B8322BB1D4F8A2
:10559000B4325B68002120469847002070BD01743A
:1055A0000020704790F89C3280F89D32042380F8E8
:1055B0009C320020704790F89C32042B01D00020D0
:1055C000704790F89D3280F89C32F8E708B590F863
:1055D0009C32032B01D0002008BDD0F8B432DB6927
:1055E000002BF8D09847F6E7002302E00133DBB246
:1055F00001300278002AF9D11846704708B54B8867
:10560000012B00D008BDC0F8A43200F08CFBF9E7F4
:105610000B7803704B7843708B78CA7803EB0223C6
:1056200043800B794A7903EB022383808B79CA7913
:1056300003EB0223C380704710B504468021FEF7B8
:10564000D2FA00212046FEF7CEFA10BD30B583B065
:1056500005460C460023ADF806304A88130A013B84
:105660000E2B00F2B580DFE803F015293DB3B397A8
:10567000A4B3B3B3B3B3B3B30800D0F8B032DB69AB
:1056800023B10DF10601007C98470AE02146FFF79F
:10569000D3FF11E0D0F8B0321B680DF10601007C99
:1056A0009847BDF806201AB1E388002B40F094809B
:1056B000E388002B00F09A8003B030BD037C43B92F
:1056C000D0F8B4329B6A0DF106009847022343706C
:1056D000E7E7D0F8B432DB6A0DF106009847022301
:1056E0004370DEE7D2B2052A52D8DFE802F0031099
:1056F0001D2A3744D0F8B0325B6823B10DF10601A2
:10570000007C9847CDE72146FFF796FFD4E7D0F815
:10571000B0329B6823B10DF10601007C9847C0E7C9
:105720002146FFF789FFC7E7D0F8B032DB6823B125
:105730000DF10601007C9847B3E72146FFF77CFF97
:10574000BAE7D0F8B0321B6923B10DF10601007C35
:105750009847A6E72146FFF76FFFADE7D0F8B032D4
:105760005B6923B10DF10601007C984799E721465A
:10577000FFF762FFA0E7D0F8B0329B6923B10DF1CB
:105780000601007C98478CE72146FFF755FF93E719
:105790002146FFF751FF8FE7037C33B9D0F8B432CD
:1057A0005B6B0DF1060098477BE72146FFF744FF4E
:1057B00082E7037C43B9D0F8B4321B6B0DF10600CD
:1057C0009847072343706CE72146FFF735FF73E7DF
:1057D0002146FFF731FF6FE79A4228BF1A46ADF81E
:1057E00006200146284600F072FA61E7284600F0DC
:1057F0009AFA61E738B504468B88F3B9CB88E3B9E8
:105800004B887F2B19D803F07F0590F89C32032B2F
:105810000CD080F89E522946FEF708FA204600F088
:1058200082FA35B1022384F89C3209E0FFF704FFC5
:1058300006E0012384F89C3202E02046FFF7FCFEDC
:1058400038BD000038B504460D468978284B1970DC
:1058500001290ED890F89C32022B0ED0032B21D0B8
:105860002946FFF7E9FE224B19782046FFF787FD0E
:1058700002E02946FFF7E0FE38BD81B14160032315
:1058800080F89C32FFF76EFD022803D0204600F01E
:105890004AFAF1E729462046FFF7CEFEECE700F092
:1058A00042FAE9E789B1436899421DD0D9B2FFF7BE
:1058B00066FD0F4B197861602046FFF753FD022803
:1058C0000DD0204600F02FFAD6E7022380F89C3254
:1058D0004160FFF754FD204600F025FACCE7294649
:1058E0002046FFF7A9FEC7E700F01DFAC4E700BF96
:1058F0002C04002008B5CB88012B0BD190F89C32EA
:105900009BB1022B09D9032B0FD10122011D00F0FD
:10591000DEF901E0FFF790FE08BD0146002341F8E3
:10592000083F012200F0D3F9F6E7FFF785FEF3E721
:1059300008B590F89C32013B022B12D8CB88022B81
:105940000CD10123C360D0F8A4320BB10323C36090
:10595000022200F10C0100F0BAF908BDFFF76CFE5D
:10596000FBE7FFF769FEF8E708B590F89C32013BCA
:10597000022B09D84B88012B00D008BD0023C0F8AA
:10598000A43200F0D0F9F8E7FFF756FEF5E708B5C6
:105990000B7803F06003202B05D0402B03D043B1DC
:1059A000FFF74AFE03E0D0F8B4329B689847002026
:1059B00008BD4B78092B1BD8DFE803F011171A1428
:1059C0001A08051A0E0BFFF741FEF0E7FFF712FF6A
:1059D000EDE7FFF737FFEAE7FFF78CFFE7E7FFF7B1
:1059E000A7FFE4E7FFF70AFEE1E7FFF7BDFFDEE709
:1059F000FFF722FEDBE738B505460C460B7803F0CF
:105A00006003202B06D0402B04D01BB1FFF714FEFF
:105A1000002038BD95F89C32013B022B16D8237923
:105A2000012B0ED8D5F8B4329B68214628469847FA
:105A3000E388002BECD10028EAD1284600F073F966
:105A4000E6E721462846FFF7F7FDE1E7214628462D
:105A5000FFF7F2FDDCE738B504468A880B7803F0DF
:105A60006003202B08D0D0B2402B05D05BB120467C
:105A7000FFF7E2FD002005E0D4F8B4329B68204631
:105A80009847002038BD202B05D1D4F8B4329B684C
:105A900020469847F6E74B78012B3CD0002B6DD081
:105AA000032B40F0F18094F89C32022B06D0032B9C
:105AB0001BD02046FFF7C0FD0020E3E7B0F18003D4
:105AC00018BF0123002808BF00234BB10146204620
:105AD000FEF789F880212046FEF785F80020D1E7FF
